:0300000002053EB8
:10000300C000788500D8FDD00022C000C001792847
:100013007868D8FED9FADAF6D001D00022D2941249
:100023000003C29422A2E79283A2E69282A2E592FF
:1000330081A2E49280120020120003A2E39283A221
:10004300E29282A2E19281A2E0928012002022D267
:1000530093020028C293020028C294C0027A281295
:10006300000DD002743312005774331200577432E8
:100073001200577428120057740C1200577401129F
:100083000057C0027A0212000DD00222E4936006E8
:10009300120052A380F62244404480020057C0E07D
:1000A300E8C4540F4430120052E8540F4430120095
:0400B30052D0E02225
:1000B700C0E0C0D0C000C001C002E4F53CF53DF58A
:1000C7003EF53FF5407A20E533A2E779047830E63C
:1000D70033F608D9FA7905783CE636D4F608D9F923
:1000E700DAE5D002D001D000D0D0D0E022C0E0C005
:1000F700D0C000C001C002E4F53CF53DF53EF53F38
:10010700F5407A20E533A2E779047830E633F6083C
:10011700D9FA7905783CC0D0E6243320E70224D009
:1001270020E30224FDD0D033F608D9EADAD6D0028C
:10013700D001D000D0D0D0E022C0E0C0D0C000C0F5
:1001470001C0027A207905C37840E613C0D030E7B2
:100157000224D030E30224FDF618D0D0D9EC79047C
:100167007833E613F618D9FADADBD002D001D000DB
:10017700D0D0D0E022C0E0C0D0E5302534F530E55E
:10018700313535F531E5323536F532E5333537F585
:1001970033D0D0D0E022C0E0C0D0C3E5309534F5ED
:1001A70030E5319535F531E5329536F532E533955C
:1001B70037F533D0D0D0E022C0E0C0D0C3E53095CA
:1001C70034E5319535E5329536E53395379200D0EC
:1001D700D0D0E022C0E0C0D0C3E5349530E53595F6
:1001E70031E5369532E53795339200D0D0D0E0220D
:1001F700C0E0C0D0C200C3E53495307014E5359532
:1002070031700EE53695327008E53795337002D2B6
:1002170000D0D0D0E0221201F72000030201DB2238
:100227001201F72000030201BF22C0E0C0F0C0D0D6
:10023700C000C001C002C003E5308534F0A4F8A9AE
:10024700F0E5318534F0A429F9E435F0FAE5308595
:1002570035F0A429F9E5F03AFAE433FBE5328534C1
:10026700F0A42AFAE5F03BFBE5318535F0A42AFA3C
:10027700E5F03BFBE5308536F0A42AFAE5F03BFBD9
:10028700E5338534F0A42BFBE5328535F0A42BFB51
:10029700E5318536F0A42BFBE5308537F0A42BFB41
:1002A7008B338A3289318830D003D002D001D00015
:1002B700D0D0D0F0D0E022C0E0C0D0C000C001C094
:1002C70002C003C0047C20E4F8F9FAFBC3E530332D
:1002D700F530E53133F531E53233F532E53333F5D2
:1002E70033E833F8E933F9EA33FAEB33FBC3E8953C
:1002F70034E99535EA9536EB95374013E89534F8A8
:10030700E99535F9EA9536FAEB9537FB433001DC89
:10031700BBD004D003D002D001D000D0D0D0E0228F
:10032700DF43200075AC0075AD0075B30075B400F0
:1003370075B10075B200438E10438780759852538C
:10034700C4DF53890F438920758DF7D28EC28C4342
:100357008E085389F043890143B38253B47D53E830
:10036700F043E80775F60043F68343E10122C28CA8
:10037700C28D758CBF758A28D28C308DFD2230993D
:10038700FDC299F59922E4936006120385A380F6CE
:1003970022E474F0553E030303032430120385E47B
:1003A700740F553E2430120385E474F0553D030362
:1003B70003032430120385E4740F553D24301203E0
:1003C70085E474F0553C030303032430120385E4EA
:1003D700740F553C2430120385740D120385740A7B
:1003E70012038522120375DAFB22D295D201D202BB
:1003F700D203D204D280D281D282D283C283209503
:1004070002C201D283C282209502C203D282C28174
:10041700209502C202D281C280209502C20422C066
:1004270083C082C0E090032712008FD0E0D082D033
:100437008322C000A8491200A1D000C0E0743A127C
:100447000052D0E0C000A8481200A1D00022C0E0AE
:1004570074011412009CD0E0C000A83E1200A1D085
:1004670000C000A83D1200A1D000C0E0742E120009
:1004770052D0E0C000A83C1200A1D00012042612FE
:10048700043922C2EFD2EE30EFFDE5C2540FF8E592
:10049700C3C4C0E0540FF9D0E054F048F8227534D3
:1004A700B375356A75360075370012019D22E54A26
:1004B7002401B40401E4F54A22E54AB4000AE543FD
:1004C7002499D4F5430204F8B4010AE5442499D4E5
:1004D700F5440204F8B40212E5457006754540027A
:1004E70004F82499D4F5450204F8E5462499D4F58F
:1004F7004622E54AB4000AE5432401D4F543020540
:1005070031B4010AE5442401D4F544020531B402AB
:1005170012E54570067545400205312401D4F545BD
:10052700020531E5462401D4F54622E54760047506
:100537004700227547012275817F12032B12005C49
:10054700754800754900754700E547B40003020583
:100557005A80F61203F12001031204B52002031298
:1005670004C02003031204F9200403120532120504
:100577007B02055053E8F043E80012048A8841895A
:100587004253E8F043E80712048A8830893175320C
:10059700007533007534AC7535A0753600753700B6
:1005A70012023185413485423575360075370012A0
:1005B70002BE753420753503753600753700120194
:1005C7007C1204A585303885313985323A85333B2D
:1005D70053E8F043E80112048A8830893175320004
:1005E7007533007534AC7535A07536007537001254
:1005F7000231854134854235753600753700120260
:10060700BE7534DF75351C7536007537001202313B
:100617007534107535277536007537001202BE859B
:100627003834853935853A36853B3712017C1200D7
:10063700B71204551203987AFA1203EB7AFA1203E7
:02064700EB22A4
:00000001FF
