:03000000020605F0
:10000300C000788500D8FDD00022C000C001792847
:100013007868D8FED9FADAF6D001D00022D2941249
:100023000003C29422A2E79283A2E69282A2E592FF
:1000330081A2E49280120020120003A2E39283A221
:10004300E29282A2E19281A2E0928012002022D267
:1000530093020028C293020028C294C0027A281295
:10006300000DD002743312005774331200577432E8
:100073001200577428120057740C1200577401129F
:100083000057C0027A0212000DD00222E4936006E8
:10009300120052A380F62244404480020057C0E07D
:1000A300E8C4540F4430120052E8540F4430120095
:0400B30052D0E02225
:1000B700C0E0C0D0C000C001C002E4F53CF53DF58A
:1000C7003EF53FF5407A20E533A2E779047830E63C
:1000D70033F608D9FA7905783CE636D4F608D9F923
:1000E700DAE5D002D001D000D0D0D0E022C0E0C005
:1000F700D0C000C001C002E4F53CF53DF53EF53F38
:10010700F5407A20E533A2E779047830E633F6083C
:10011700D9FA7905783CC0D0E6243320E70224D009
:1001270020E30224FDD0D033F608D9EADAD6D0028C
:10013700D001D000D0D0D0E022C0E0C0D0C000C0F5
:1001470001C0027A207905C37840E613C0D030E7B2
:100157000224D030E30224FDF618D0D0D9EC79047C
:100167007833E613F618D9FADADBD002D001D000DB
:10017700D0D0D0E022C0E0C0D0E5302534F530E55E
:10018700313535F531E5323536F532E5333537F585
:1001970033D0D0D0E022C0E0C0D0C3E5309534F5ED
:1001A70030E5319535F531E5329536F532E533955C
:1001B70037F533D0D0D0E022C0E0C0D0C3E53095CA
:1001C70034E5319535E5329536E53395379200D0EC
:1001D700D0D0E022C0E0C0D0C3E5349530E53595F6
:1001E70031E5369532E53795339200D0D0D0E0220D
:1001F700C0E0C0D0C200C3E53495307014E5359532
:1002070031700EE53695327008E53795337002D2B6
:1002170000D0D0D0E0221201F72000030201DB2238
:100227001201F72000030201BF22C0E0C0F0C0D0D6
:10023700C000C001C002C003E5308534F0A4F8A9AE
:10024700F0E5318534F0A429F9E435F0FAE5308595
:1002570035F0A429F9E5F03AFAE433FBE5328534C1
:10026700F0A42AFAE5F03BFBE5318535F0A42AFA3C
:10027700E5F03BFBE5308536F0A42AFAE5F03BFBD9
:10028700E5338534F0A42BFBE5328535F0A42BFB51
:10029700E5318536F0A42BFBE5308537F0A42BFB41
:1002A7008B338A3289318830D003D002D001D00015
:1002B700D0D0D0F0D0E022C0E0C0D0C000C001C094
:1002C70002C003C0047C20E4F8F9FAFBC3E530332D
:1002D700F530E53133F531E53233F532E53333F5D2
:1002E70033E833F8E933F9EA33FAEB33FBC3E8953C
:1002F70034E99535EA9536EB95374013E89534F8A8
:10030700E99535F9EA9536FAEB9537FB433001DC89
:10031700BBD004D003D002D001D000D0D0D0E0228F
:10032700DF4320005354200048542000534B200043
:1003370052460075AC0075AD0075B30075B4007515
:10034700B10075B200438E1043878075985253C42D
:10035700DF53890F438920758DF7D28EC28C438E68
:10036700085389F043890143B38253B47D53E8F0BE
:1003770043E80775F60043F68343E10122C28CC2C6
:100387008D758CBF758A28D28C308DFD223099FDF2
:10039700C299F59922E4936006120394A380F6228A
:1003A700E474F0553E030303032430120394E4740A
:1003B7000F553E2430120394E474F0553D030303B4
:1003C700032430120394E4740F553D243012039430
:1003D700E474F0553C030303032430120394E474DC
:1003E7000F553C2430120394740D120394740A12AF
:1003F700039422120384DAFB22D295D201D202D2CD
:1004070003D204D280D281D282D283C283209502C2
:10041700C201D283C282209502C203D282C2812046
:100427009502C202D281C280209502C20422C083F3
:10043700C082C0E090032712008FD0E0D082D08323
:1004470022C000A8491200A1D000C0E0743A1200EF
:1004570052D0E0C000A8481200A1D00022C0E0742A
:10046700011412009CD0E0C000A83E1200A1D000E9
:10047700C000A83D1200A1D000C0E0742E120052A7
:10048700D0E0C000A83C1200A1D00012043512042D
:100497004822C0E074011412009AD0E0E547B40086
:1004A70015C083C082C0E090032B12008FD0E0D02C
:1004B70082D0830204FFB40115C083C082C0E090DC
:1004C700032F12008FD0E0D082D0830204FFB40242
:1004D70015C083C082C0E090033312008FD0E0D0F4
:1004E70082D0830204FFC083C082C0E0900337122A
:1004F700008FD0E0D082D083C0E07431120052D098
:10050700E0C000A8431200A1D000C0E07420120090
:1005170052D0E0C000A8441200A1D000C0E074206F
:10052700120052D0E0C0E07432120052D0E0C00096
:10053700A8451200A1D000C0E07420120052D0E0FC
:10054700C000A8461200A1D00022C2EFD2EE30EFC1
:10055700FDE5C2540FF8E5C3C4C0E0540FF9D0E07D
:1005670054F048F8227534B375356A753600753717
:100577000012019D22E54A2401B40401E4F54A2250
:10058700E54AB4000AE5432499D4F5430205BFB40C
:10059700010AE5442499D4F5440205BFB40212E5E3
:1005A7004570067545400205BF2499D4F5450205F7
:1005B700BFE5462499D4F54622E54AB4000AE54347
:1005C7002401D4F5430205F8B4010AE5442401D413
:1005D700F5440205F8B40212E54570067545400278
:1005E70005F82401D4F5450205F8E5462401D4F5BC
:1005F7004622E54760047547002275470122758149
:100607007F12033A12005C75480075490075470070
:10061700E547B4000302062180F612040020010317
:1006270012057C2002031205872003031205C02050
:1006370004031205F912064512049902061753E836
:10064700F043E8001205518841894253E8F043E836
:1006570007120551883089317532007533007534BA
:10066700AC7535A0753600753700120231854134F7
:100677008542357536007537001202BE7534207510
:10068700350375360075370012017C12056C85300D
:100697003885313985323A85333B53E8F043E801F1
:1006A700120551883089317532007533007534ACC5
:1006B7007535A075360075370012023185413485CE
:1006C70042357536007537001202BE7534DF753551
:1006D7001C753600753700120231753410753527D1
:1006E7007536007537001202BE8538348539358571
:1006F7003A36853B3712017C1200B71204641203A5
:0C070700A77AFA1203FA7AFA1203FA2217
:00000001FF
