:0300000002069263
:03002B0002036568
:10002E00C000788500D8FDD00022C000C00179281C
:10003E007868D8FED9FADAF6D001D00022D294121E
:10004E00002EC29422A2E79283A2E69282A2E592A9
:10005E0081A2E4928012004B12002EA2E39283A2A0
:10006E00E29282A2E19281A2E0928012004B22D211
:10007E0093020053C293020053C294C0027A281214
:10008E000038D0027433120082743312008274323C
:10009E001200827428120082740C120082740112F3
:1000AE000082C0027A02120038D00222E493600667
:1000BE0012007DA380F62244404480020082C0E0FC
:1000CE00E8C4540F443012007DE8540F443012003F
:0400DE007DD0E022CF
:1000E200C0E0C0D0C000C001C002E4F53CF53DF55F
:1000F2003EF53FF5407A20E533A2E779047830E611
:1001020033F608D9FA7905783CE636D4F608D9F9F7
:10011200DAE5D002D001D000D0D0D0E022C0E0C0D9
:10012200D0C000C001C002E4F53CF53DF53EF53F0C
:10013200F5407A20E533A2E779047830E633F60811
:10014200D9FA7905783CC0D0E6243320E70224D0DE
:1001520020E30224FDD0D033F608D9EADAD6D00261
:10016200D001D000D0D0D0E022C0E0C0D0C000C0CA
:1001720001C0027A207905C37840E613C0D030E787
:100182000224D030E30224FDF618D0D0D9EC790451
:100192007833E613F618D9FADADBD002D001D000B0
:1001A200D0D0D0E022C0E0C0D0E5302534F530E533
:1001B200313535F531E5323536F532E5333537F55A
:1001C20033D0D0D0E022C0E0C0D0C3E5309534F5C2
:1001D20030E5319535F531E5329536F532E5339531
:1001E20037F533D0D0D0E022C0E0C0D0C3E530959F
:1001F20034E5319535E5329536E53395379200D0C1
:10020200D0D0E022C0E0C0D0C3E5349530E53595CA
:1002120031E5369532E53795339200D0D0D0E022E1
:10022200C0E0C0D0C200C3E53495307014E5359506
:1002320031700EE53695327008E53795337002D28B
:1002420000D0D0D0E02212022220000302020622B5
:100252001202222000030201EA22C0E0C0F0C0D054
:10026200C000C001C002C003E5308534F0A4F8A983
:10027200F0E5318534F0A429F9E435F0FAE530856A
:1002820035F0A429F9E5F03AFAE433FBE532853496
:10029200F0A42AFAE5F03BFBE5318535F0A42AFA11
:1002A200E5F03BFBE5308536F0A42AFAE5F03BFBAE
:1002B200E5338534F0A42BFBE5328535F0A42BFB26
:1002C200E5318536F0A42BFBE5308537F0A42BFB16
:1002D2008B338A3289318830D003D002D001D000EA
:1002E200D0D0D0F0D0E022C0E0C0D0C000C001C069
:1002F20002C003C0047C20E4F8F9FAFBC3E5303302
:10030200F530E53133F531E53233F532E53333F5A6
:1003120033E833F8E933F9EA33FAEB33FBC3E89510
:1003220034E99535EA9536EB95374013E89534F87C
:10033200E99535F9EA9536FAEB9537FB433001DC5E
:10034200BBD004D003D002D001D000D0D0D0E02264
:10035200DF4320005354200048542000534B200018
:10036200524600C2CFC0E0C0D00548E548B4FA2AE0
:100372001206E5200107D201E4F548801DE5492473
:1003820001D4646060086460F549C201800CE4C273
:1003920001F549E54A2401D4F54AD0D0D0E03275BE
:1003A200AC0075AD0075B30075B40075B10075B2DF
:1003B20000438E1043878075985253C4DF53890FD0
:1003C200438920758DF7D28EC28C438E085389F0F3
:1003D20043890175C80075CD7E75CC5043C98075BF
:1003E200CB7E75CA50E4F548439B8043B38253B435
:1003F2007D53E8F043E80775F60043F68343E101D5
:10040200D2AF22C28CC28D758CBF758A28D28C3035
:100412008DFD223099FDC299F59922E4936006126E
:100422000415A380F622E474F0553E03030303246B
:1004320030120415E4740F553E2430120415E4748E
:10044200F0553D030303032430120415E4740F55E1
:100452003D2430120415E474F0553C0303030324D5
:1004620030120415E4740F553C2430120415740D37
:10047200120415740A12041522120405DAFB22D2A0
:1004820095D202D203D204D205D280D281D282D2B4
:1004920083C2832095053095FDC202D283C281209A
:1004A20095053095FDC204D281C282209505309512
:1004B200FDC203D281C2802095053095FDC205227E
:1004C200C083C082C0E09003521200BAD0E0D08252
:1004D200D08322C000A84A1200CCD000C0E0743AF7
:1004E20012007DD0E0C000A8491200CCD00022C08A
:1004F200E07401141200C7D0E0C000A83E1200CC84
:10050200D000C000A83D1200CCD000C0E0742E1272
:10051200007DD0E0C000A83C1200CCD0001204C282
:100522001204D522C0E07401141200C5D0E0E547E0
:10053200B40015C083C082C0E09003561200BAD046
:10054200E0D082D08302058CB40115C083C082C082
:10055200E090035A1200BAD0E0D082D08302058C18
:10056200B40215C083C082C0E090035E1200BAD00C
:10057200E0D082D08302058CC083C082C0E09003A9
:10058200621200BAD0E0D082D083C0E0743112008F
:100592007DD0E0C000A8431200CCD000C0E074209F
:1005A20012007DD0E0C000A8441200CCD000C0E010
:1005B200742012007DD0E0C0E0743212007DD0E0E1
:1005C200C000A8451200CCD000C0E0742012007D0B
:1005D200D0E0C000A8461200CCD00022C2EFD2EE7A
:1005E20030EFFDE5C2540FF8E5C3C4C0E0540FF983
:1005F200D0E054F048F8227534B375356A75360088
:100602007537001201C822E54B2401B40401E4F558
:100612004B22E54BB4000AE5432499D4F543020684
:100622004CB4010AE5442499D4F54402064CB402C0
:1006320012E545700675454002064C2499D4F545ED
:1006420002064CE5462499D4F54622E54BB4000A4D
:10065200E5432401D4F543020685B4010AE54424A6
:1006620001D4F544020685B40212E54570067545CB
:10067200400206852401D4F545020685E54624019B
:10068200D4F54622E54760047547002275470122EA
:1006920075817F1203A1120087754900754A0075A2
:1006A2004700754360754470754520754630C20138
:1006B200754800D2CAE547B400030206C180F612AB
:1006C20004812002031206092003031206142004E7
:1006D2000312064D2005031206861204F1120526A6
:1006E2000206B753E8F043E8001205DE884189426A
:1006F20053E8F043E8071205DE883089317532008D
:100702007533007534AC7535A07536007537001237
:10071200025C854134854235753600753700120218
:10072200E97534207535037536007537001201A757
:100732001205F985303885313985323A85333B5394
:10074200E8F043E8011205DE883089317532007520
:1007520033007534AC7535A075360075370012025A
:100762005C8541348542357536007537001202E9E1
:100772007534DF75351C75360075370012025C75ED
:1007820034107535277536007537001202E9853841
:1007920034853935853A36853B371201A71200E296
:0407A20012042822F3
:00000001FF
