:1000000002046D54656D70657261747572653A00B5
:10001000C000788500D8FDD00022C000C00179283A
:100020007868D8FED9FADAF6D001D00022D294123C
:100030000010C29422A2E79283A2E69282A2E592E5
:1000400081A2E4928012002D120010A2E39283A2FA
:10005000E29282A2E19281A2E0928012002D22D24D
:1000600093020035C293020035C294C0027A28126E
:10007000001AD002743312006474331200647432B4
:100080001200647428120064740C1200647401126B
:100090000064C0027A0212001AD00222E4936006C1
:1000A00012005FA380F62244404480020064C0E056
:1000B000E8C4540F443012005FE8540F443012007B
:0400C0005FD0E0220B
:1000C400C0E0C0D0C000C001C002E4F53CF53DF57D
:1000D4003EF53FF5407A20E533A2E779047830E62F
:1000E40033F608D9FA7905783CE636D4F608D9F916
:1000F400DAE5D002D001D000D0D0D0E022C0E0C0F8
:10010400D0C000C001C002E4F53CF53DF53EF53F2A
:10011400F5407A20E533A2E779047830E633F6082F
:10012400D9FA7905783CC0D0E6243320E70224D0FC
:1001340020E30224FDD0D033F608D9EADAD6D0027F
:10014400D001D000D0D0D0E022C0E0C0D0C000C0E8
:1001540001C0027A207905C37840E613C0D030E7A5
:100164000224D030E30224FDF618D0D0D9EC79046F
:100174007833E613F618D9FADADBD002D001D000CE
:10018400D0D0D0E022C0E0C0D0E5302534F530E551
:10019400313535F531E5323536F532E5333537F578
:1001A40033D0D0D0E022C0E0C0D0C3E5309534F5E0
:1001B40030E5319535F531E5329536F532E533954F
:1001C40037F533D0D0D0E022C0E0C0D0C3E53095BD
:1001D40034E5319535E5329536E53395379200D0DF
:1001E400D0D0E022C0E0C0D0C3E5349530E53595E9
:1001F40031E5369532E53795339200D0D0D0E02200
:10020400C0E0C0D0C200C3E53495307014E5359524
:1002140031700EE53695327008E53795337002D2A9
:1002240000D0D0D0E0221202042000030201E82210
:100234001202042000030201CC22C0E0C0F0C0D0AE
:10024400C000C001C002C003E5308534F0A4F8A9A1
:10025400F0E5318534F0A429F9E435F0FAE5308588
:1002640035F0A429F9E5F03AFAE433FBE5328534B4
:10027400F0A42AFAE5F03BFBE5318535F0A42AFA2F
:10028400E5F03BFBE5308536F0A42AFAE5F03BFBCC
:10029400E5338534F0A42BFBE5328535F0A42BFB44
:1002A400E5318536F0A42BFBE5308537F0A42BFB34
:1002B4008B338A3289318830D003D002D001D00008
:1002C400D0D0D0F0D0E022C0E0C0D0C000C001C087
:1002D40002C003C0047C20E4F8F9FAFBC3E5303320
:1002E400F530E53133F531E53233F532E53333F5C5
:1002F40033E833F8E933F9EA33FAEB33FBC3E8952F
:1003040034E99535EA9536EB95374013E89534F89A
:10031400E99535F9EA9536FAEB9537FB433001DC7C
:10032400BBD004D003D002D001D000D0D0D0E02282
:10033400DF430075AC0075AD0075B30075B400758E
:10034400B10075B200438E1043878075985253C430
:10035400DF53890F438920758DF7D28EC28C438E6B
:10036400085389F043890143B38253B47D53E8F0C1
:1003740043E80775F60043F68343E10122C28CC2C9
:100384008D758CBF758A28D28C308DFD223099FDF5
:10039400C299F59922E4936006120391A380F62290
:1003A400E474F0553E030303032430120391E47410
:1003B4000F553E2430120391E474F0553D030303BA
:1003C400032430120391E4740F553D243012039139
:1003D400E474F0553C030303032430120391E474E2
:1003E4000F553C2430120391740D120391740A12B8
:1003F400039122120381DAFB22C083C082C0E09001
:10040400033412009CD0E0D082D08322C0E0740177
:10041400141200A7D0E0C000A83E1200AED000C065
:1004240000A83D1200AED000C0E0742E12005FD0D0
:10043400E0C000A83C1200AED0001203FD22C2EFBF
:10044400D2EE30EFFDE5C2540FF8E5C3C4C0E0546A
:100454000FF9D0E054F048F8227534B375356A7555
:1004640036007537001201AA2275817F12033712F4
:100474000069C0E07401141200A9D0E0C083C082F6
:10048400C0E090000312009CD0E0D082D083C0E092
:100494007401141200A7D0E053E8F043E8001204FA
:1004A400428841894253E8F043E807120442883005
:1004B40089317532007533007534AC7535A07536E5
:1004C4000075370012023E85413485423575360089
:1004D4007537001202CB75342075350375360075F7
:1004E400370012018912045D85303885313985322F
:1004F4003A85333B53E8F043E801120442883089DB
:10050400317532007533007534AC7535A07536001D
:1005140075370012023E85413485423575360075C3
:1005240037001202CB7534DF75351C75360075370C
:100534000012023E75341075352775360075370084
:100544001202CB853834853935853A36853B3712E6
:1005540001891200C41204101203A47AFA1203F7D8
:080564007AFA1203F702049C6D
:00000001FF
