:03000000020708EC
:03000B0002036A83
:03002B0002037756
:10002E00C000788500D8FDD00022C000C00179281C
:10003E007868D8FED9FADAF6D001D00022D294121E
:10004E00002EC29422A2E79283A2E69282A2E592A9
:10005E0081A2E4928012004B12002EA2E39283A2A0
:10006E00E29282A2E19281A2E0928012004B22D211
:10007E0093020053C293020053C294C0027A281214
:10008E000038D0027433120082743312008274323C
:10009E001200827428120082740C120082740112F3
:1000AE000082C0027A02120038D00222E493600667
:1000BE0012007DA380F62244404480020082C0E0FC
:1000CE00E8C4540F443012007DE8540F443012003F
:0400DE007DD0E022CF
:1000E200C0E0C0D0C000C001C002E4F540F541F557
:1000F20042F543F5447A20E533A2E779047830E605
:1001020033F608D9FA79057840E636D4F608D9F9F3
:10011200DAE5D002D001D000D0D0D0E022C0E0C0D9
:10012200D0C000C001C002E4F540F541F542F543FC
:10013200F5447A20E533A2E779047830E633F6080D
:10014200D9FA79057840C0D0E6243320E70224D0DA
:1001520020E30224FDD0D033F608D9EADAD6D00261
:10016200D001D000D0D0D0E022C0E0C0D0C000C0CA
:1001720001C0027A207905C37844E613C0D030E783
:100182000224D030E30224FDF618D0D0D9EC790451
:100192007833E613F618D9FADADBD002D001D000B0
:1001A200D0D0D0E022C0E0C0D0E5302538F530E52F
:1001B200313539F531E532353AF532E533353BF54E
:1001C20033D0D0D0E022C0E0C0D0C3E5309538F5BE
:1001D20030E5319539F531E532953AF532E5339529
:1001E2003BF533D0D0D0E022C0E0C0D0C3E530959B
:1001F20038E5319539E532953AE533953B9200D0B1
:10020200D0D0E022C0E0C0D0C3E5389530E53995C2
:1002120031E53A9532E53B95339200D0D0D0E022D9
:10022200C0E0C0D0C200C3E53895307014E53995FE
:1002320031700EE53A95327008E53B95337002D283
:1002420000D0D0D0E02212022220000302020622B5
:100252001202222000030201EA22C0E0C0F0C0D054
:10026200C000C001C002C003E5308538F0A4F8A97F
:10027200F0E5318538F0A429F9E435F0FAE5308566
:1002820039F0A429F9E5F03AFAE433FBE53285388E
:10029200F0A42AFAE5F03BFBE5318539F0A42AFA0D
:1002A200E5F03BFBE530853AF0A42AFAE5F03BFBAA
:1002B200E5338538F0A42BFBE5328539F0A42BFB1E
:1002C200E531853AF0A42BFBE530853BF0A42BFB0E
:1002D2008B338A3289318830D003D002D001D000EA
:1002E200D0D0D0F0D0E022C0E0C0D0C000C001C069
:1002F20002C003C0047C20E4F8F9FAFBC3E5303302
:10030200F530E53133F531E53233F532E53333F5A6
:1003120033E833F8E933F9EA33FAEB33FBC3E89510
:1003220038E99539EA953AEB953B4013E89538F868
:10033200E99539F9EA953AFAEB953BFB433001DC52
:10034200BBD004D003D002D001D000D0D0D0E02264
:10035200DF4320005354200048542000534B200018
:1003620052462000434C2000C28C758CF0758A2CBA
:10037200B296D28C32C2CFC0E0C0D00555C3E5568A
:100382009555B39290E555B4643975550030010C1A
:10039200E5549401F5547004C201C28C1208C0E500
:1003A20050E5512401D4F5516019E5522401D46479
:1003B2006060066460F552800AE4F552E553240158
:1003C200D4F553D0D0D0E03275AC0075AD0075B322
:1003D2000075B40075B10075B200438E08E589540A
:1003E200F04401F589758CF0758A2CD2A9C28C4330
:1003F2008E1043878075985253C4DF53890F438907
:1004020020758DF7D28E75C80075CDD775CC79431E
:10041200C9A075CBD775CA79755500E4439B804353
:10042200B38253B47D53E8F043E80775F60043F610
:100432008343E101D2AF22C28CC28D758CBF758A13
:1004420028D28C308DFD223099FDC299F59922E493
:10045200936006120449A380F622E533120449E5AB
:1004620032120449E531120449E530120449E54CDF
:10047200120449E54D120449E54E120449E54F12B2
:100482000449E550120449740D120449740A120415
:100492004922120439DAFB22D295D202D203D204C3
:1004A200D205D280D281D282D283C28320950530F6
:1004B20095FDC202D283C2812095053095FDC2040A
:1004C200D281C2822095053095FDC203D281C280BD
:1004D2002095053095FDC20522C083C082C0E09000
:1004E20003521200BAD0E0D082D08322C000A853B7
:1004F2001200CCD000C0E0743A12007DD0E0C000FF
:10050200A8521200CCD00022853430853531853690
:10051200328537332285303485313585323685331D
:10052200372285454085464185474285484385496E
:100532004422854045854146854247854348854456
:100542004922C0E07401141200C7D0E0C000A842E2
:100552001200CCD000C000A8411200CCD000C0E0F4
:10056200742E12007DD0E0C000A8401200CCD00052
:100572001204DB1204EE22C0E07401141200C5D092
:10058200E0E550B40015C083C082C0E0900356126B
:1005920000BAD0E0D082D0830205F7B40115C0833F
:1005A200C082C0E090035A1200BAD0E0D082D08359
:1005B2000205F7B40215C083C082C0E090035E1248
:1005C20000BAD0E0D082D0830205F7B40315C0830D
:1005D200C082C0E09003621200BAD0E0D082D08321
:1005E2000205F7C083C082C0E09003661200BAD051
:1005F200E0D082D083C0E0743112007DD0E0C00030
:10060200A84C1200CCD000C0E0742012007DD0E0D3
:10061200C000A84D1200CCD000C0E0742012007DB2
:10062200D0E0C0E0743212007DD0E0C000A84E12CB
:1006320000CCD000C0E0742012007DD0E0C000A841
:100642004F1200CCD00022C2EFD2EE30EFFDE5C255
:10065200540FF8E5C3C4C0E0540FF9D0E054F04899
:10066200F8227538B375396A753A00753B00120184
:10067200C822E5572401B40401E4F55722E557B432
:10068200000AE54C2499D4F54C0206B7B4010AE5F8
:100692004D2499D4F54D0206B7B40212E54E700608
:1006A200754E400206B72499D4F54E0206B7E54FBF
:1006B2002499D4F54F22E557B4000AE54C2401D41D
:1006C200F54C0206F4B4010AE54D2401D4F54D02BD
:1006D20006F4B40216E54E64407006754E0002063A
:1006E200F464402401D4F54E0206F4E54F2401D40B
:1006F200F54F22755403D201D28CE5506004755037
:1007020000227550012275817F1203CA120087757B
:100712005400755200755300755000754C60754D4C
:1007220070754E20754F30755700C20675560075AC
:100732005500D2CAE550B40003020753B4010302C4
:100742000783B40203020823B4030302084A02081F
:100752006F75520075530075560012049A200203F9
:1007620012067420030312067F2004031206B82027
:1007720005067551001206F51205441205790207A5
:100782003675566412049A2005031206F5E551B433
:100792006021C2CA12050A753864753900753A00BB
:1007A200753B001202E9E4E530C39432D2CA5068C4
:1007B2001206F5C2CA753864753900753A00753B80
:1007C2000012050A1202E9E4E5301205342006148B
:1007D2007530647531007532007533001200E285A0
:1007E2004C4080127530C875310075320075330087
:1007F2001200E2854E4012016B120524C39530D2DD
:10080200CA4015D28C755403D201755100200605D9
:1008120075500280037550031205441205790207D0
:100822003675560012049A2005031206F5E5516545
:100832004D700CD28C755403D201D2067550011240
:10084200054412057902073675561412049A2005DA
:10085200031206F5E551654F700AD28C755403D226
:1008620001755004120544120579020736755600C7
:1008720012049A2005031206F5C2CA753864753946
:1008820000753A00753B0012050A1202E9E4E530F0
:10089200120534753000753100753200753300125F
:1008A20000E275406012016B120524C39530D2CA72
:1008B20050031206F512054412057902073653E871
:1008C200F043E800120649884A894B53E8F043E8AE
:1008D2000712064988308931753200753300753840
:1008E200AC7539A0753A00753B0012025C854A3836
:1008F200854B39753A00753B001202E9753820754F
:100902003903753A00753B001201A712066485305F
:100912003C85313D85323E85333F53E8F043E80163
:10092200120649883089317532007533007538AC4A
:100932007539A0753A00753B0012025C854A38850C
:100942004B39753A00753B001202E97538DF75398B
:100952001C753A00753B0012025C75381075392718
:10096200753A00753B001202E9853C38853D3985B0
:100972003E3A853F3B1201A71200E212045C1205C7
:0209820017223A
:00000001FF
