:030000000206DB1A
:03002B0002036A63
:10002E00C000788500D8FDD00022C000C00179281C
:10003E007868D8FED9FADAF6D001D00022D294121E
:10004E00002EC29422A2E79283A2E69282A2E592A9
:10005E0081A2E4928012004B12002EA2E39283A2A0
:10006E00E29282A2E19281A2E0928012004B22D211
:10007E0093020053C293020053C294C0027A281214
:10008E000038D0027433120082743312008274323C
:10009E001200827428120082740C120082740112F3
:1000AE000082C0027A02120038D00222E493600667
:1000BE0012007DA380F62244404480020082C0E0FC
:1000CE00E8C4540F443012007DE8540F443012003F
:0400DE007DD0E022CF
:1000E200C0E0C0D0C000C001C002E4F540F541F557
:1000F20042F543F5447A20E533A2E779047830E605
:1001020033F608D9FA79057840E636D4F608D9F9F3
:10011200DAE5D002D001D000D0D0D0E022C0E0C0D9
:10012200D0C000C001C002E4F540F541F542F543FC
:10013200F5447A20E533A2E779047830E633F6080D
:10014200D9FA79057840C0D0E6243320E70224D0DA
:1001520020E30224FDD0D033F608D9EADAD6D00261
:10016200D001D000D0D0D0E022C0E0C0D0C000C0CA
:1001720001C0027A207905C37844E613C0D030E783
:100182000224D030E30224FDF618D0D0D9EC790451
:100192007833E613F618D9FADADBD002D001D000B0
:1001A200D0D0D0E022C0E0C0D0E5302538F530E52F
:1001B200313539F531E532353AF532E533353BF54E
:1001C20033D0D0D0E022C0E0C0D0C3E5309538F5BE
:1001D20030E5319539F531E532953AF532E5339529
:1001E2003BF533D0D0D0E022C0E0C0D0C3E530959B
:1001F20038E5319539E532953AE533953B9200D0B1
:10020200D0D0E022C0E0C0D0C3E5389530E53995C2
:1002120031E53A9532E53B95339200D0D0D0E022D9
:10022200C0E0C0D0C200C3E53895307014E53995FE
:1002320031700EE53A95327008E53B95337002D283
:1002420000D0D0D0E02212022220000302020622B5
:100252001202222000030201EA22C0E0C0F0C0D054
:10026200C000C001C002C003E5308538F0A4F8A97F
:10027200F0E5318538F0A429F9E435F0FAE5308566
:1002820039F0A429F9E5F03AFAE433FBE53285388E
:10029200F0A42AFAE5F03BFBE5318539F0A42AFA0D
:1002A200E5F03BFBE530853AF0A42AFAE5F03BFBAA
:1002B200E5338538F0A42BFBE5328539F0A42BFB1E
:1002C200E531853AF0A42BFBE530853BF0A42BFB0E
:1002D2008B338A3289318830D003D002D001D000EA
:1002E200D0D0D0F0D0E022C0E0C0D0C000C001C069
:1002F20002C003C0047C20E4F8F9FAFBC3E5303302
:10030200F530E53133F531E53233F532E53333F5A6
:1003120033E833F8E933F9EA33FAEB33FBC3E89510
:1003220038E99539EA953AEB953B4013E89538F868
:10033200E99539F9EA953AFAEB953BFB433001DC52
:10034200BBD004D003D002D001D000D0D0D0E02264
:10035200DF4320005354200048542000534B200018
:1003620052462000434C2000C2CFC0E0C0D005540A
:10037200C3E5559554B39290E554B4642A7554007C
:1003820012087BE550E5512401D4F5516019E5527C
:100392002401D4646060066460F552800AE4F55278
:1003A200E5532401D4F553D0D0D0E03275AC0075BA
:1003B200AD0075B30075B40075B10075B200438E1F
:1003C2001043878075985253C4DF53890F438920A5
:1003D200758DF7D28EC28C438E085389F043890102
:1003E20075C80075CDD775CC7943C9A075CBD775C3
:1003F200CA79755400E4439B8043B38253B47D535E
:10040200E8F043E80775F60043F68343E101D2AF13
:1004120022C28CC28D758CBF758A28D28C308DFD1C
:10042200223099FDC299F59922E4936006120423C1
:10043200A380F622E533120423E532120423E531C8
:10044200120423E530120423E54C120423E54D1275
:100452000423E54E120423E54F120423E55012044F
:1004620023740D120423740A12042322120413DAD1
:10047200FB22D295D201D202D203D204D280D281FF
:10048200D282D283C2832095053095FDC201D283E8
:10049200C2812095053095FDC203D281C28220958A
:1004A200053095FDC202D281C2802095053095FDAE
:1004B200C20422C083C082C0E09003521200BAD0AC
:1004C200E0D082D08322C000A8531200CCD000C05A
:1004D200E0743A12007DD0E0C000A8521200CCD0E5
:1004E2000022853430853531853632853733228591
:1004F200303485313585323685333722854540851E
:100502004641854742854843854944228540458581
:10051200414685424785434885444922C0E07401EB
:10052200141200C7D0E0C000A8421200CCD000C014
:1005320000A8411200CCD000C0E0742E12007DD081
:10054200E0C000A8401200CCD0001204B51204C8CA
:1005520022C0E07401141200C5D0E0E550B40015C9
:10056200C083C082C0E09003561200BAD0E0D082AD
:10057200D0830205D1B40115C083C082C0E09003CC
:100582005A1200BAD0E0D082D0830205D1B402154B
:10059200C083C082C0E090035E1200BAD0E0D08275
:1005A200D0830205D1B40315C083C082C0E090039A
:1005B200621200BAD0E0D082D0830205D1C083C0DB
:1005C20082C0E09003661200BAD0E0D082D083C02D
:1005D200E0743112007DD0E0C000A84C1200CCD0F3
:1005E20000C0E0742012007DD0E0C000A84D1200CF
:1005F200CCD000C0E0742012007DD0E0C0E07432A4
:1006020012007DD0E0C000A84E1200CCD000C0E0A5
:10061200742012007DD0E0C000A84F1200CCD000A0
:1006220022C2EFD2EE30EFFDE5C2540FF8E5C3C4AB
:10063200C0E0540FF9D0E054F048F8227538B37591
:10064200396A753A00753B001201C822E556240149
:10065200B40401E4F55622E556B4000AE54C2499A7
:10066200D4F54C020691B4010AE54D2499D4F54D16
:10067200020691B40212E54E7006754E40020691D2
:100682002499D4F54E020691E54F2499D4F54F22D0
:10069200E556B4000AE54C2401D4F54C0206CEB46A
:1006A200010AE54D2401D4F54D0206CEB40216E549
:1006B2004E64407006754E000206CE64402401D49A
:1006C200F54E0206CEE54F2401D4F54F22E55060E7
:1006D20004755000227550012275817F1203AE12FB
:1006E2000087755200755300755000754C60754D4A
:1006F20070754E20754F30755600C20575550075E0
:100702005400D2CAE550B40003020723B401030225
:100712000753B402030207ECB4030302080C0208F5
:100722002A75520075530075550012047420010396
:1007320012064E20020312065920030312069220CB
:1007420004067551001206CF12051E120553020748
:10075200067555641204742004031206CFE551B4E1
:100762006021C2CA1204E4753864753900753A0012
:10077200753B001202E9E4E530C39432D2CA5061FB
:100782001206CFC2CA753864753900753A00753BD6
:10079200001204E41202E9E4E53012050E20051409
:1007A2007530647531007532007533001200E285D0
:1007B2004C4080127530C8753100753200753300B7
:1007C2001200E2854E4012016B1204FEC39530D234
:1007D200CA400E7551002005057550028003755000
:1007E2000312051E12055302070675550012047402
:1007F2002004031206CFE551654D7005D2057550F0
:100802000112051E120553020706755514120474CF
:100812002004031206CFE551654F70037550041290
:10082200051E1205530207067555001204742004B2
:10083200031206CFC2CA753864753900753A00755D
:100842003B001204E41202E9E4E53012050E7530B1
:10085200007531007532007533001200E275406098
:1008620012016B1204FEC39530D2CA5003755000B8
:1008720012051E12055302070653E8F043E8001260
:100882000623884A894B53E8F043E8071206238877
:100892003089317532007533007538AC7539A07501
:1008A2003A00753B0012025C854A38854B39753A2D
:1008B20000753B001202E9753820753903753A005C
:1008C200753B001201A712063E85303C85313D85FD
:1008D200323E85333F53E8F043E801120623883065
:1008E20089317532007533007538AC7539A0753AA7
:1008F20000753B0012025C854A38854B39753A0017
:10090200753B001202E97538DF75391C753A0075BE
:100912003B0012025C753810753927753A00753B39
:10092200001202E9853C38853D39853E3A853F3BD8
:0D0932001201A71200E21204361204F12295
:00000001FF
